{
  "contractName": "Election",
  "abi": [
    {
      "anonymous": false,
      "inputs": [
        {
          "indexed": false,
          "internalType": "address",
          "name": "addr",
          "type": "address"
        }
      ],
      "name": "newCandidateAdded",
      "type": "event"
    },
    {
      "anonymous": false,
      "inputs": [
        {
          "indexed": false,
          "internalType": "address",
          "name": "addr",
          "type": "address"
        },
        {
          "indexed": false,
          "internalType": "uint256",
          "name": "votes",
          "type": "uint256"
        }
      ],
      "name": "newVote",
      "type": "event"
    },
    {
      "inputs": [
        {
          "internalType": "address",
          "name": "",
          "type": "address"
        }
      ],
      "name": "candidates",
      "outputs": [
        {
          "internalType": "uint256",
          "name": "votes",
          "type": "uint256"
        },
        {
          "internalType": "bool",
          "name": "isPutUpForElection",
          "type": "bool"
        }
      ],
      "stateMutability": "view",
      "type": "function",
      "constant": true
    },
    {
      "inputs": [
        {
          "internalType": "uint256",
          "name": "",
          "type": "uint256"
        }
      ],
      "name": "candidatesArray",
      "outputs": [
        {
          "internalType": "address",
          "name": "",
          "type": "address"
        }
      ],
      "stateMutability": "view",
      "type": "function",
      "constant": true
    },
    {
      "inputs": [],
      "name": "enterSelection",
      "outputs": [],
      "stateMutability": "nonpayable",
      "type": "function"
    },
    {
      "inputs": [
        {
          "internalType": "address",
          "name": "_addr",
          "type": "address"
        }
      ],
      "name": "voteFor",
      "outputs": [],
      "stateMutability": "nonpayable",
      "type": "function"
    },
    {
      "inputs": [
        {
          "internalType": "address",
          "name": "_addr",
          "type": "address"
        }
      ],
      "name": "getVotesFor",
      "outputs": [
        {
          "internalType": "uint256",
          "name": "",
          "type": "uint256"
        }
      ],
      "stateMutability": "view",
      "type": "function",
      "constant": true
    },
    {
      "inputs": [],
      "name": "getCandidates",
      "outputs": [
        {
          "internalType": "address[]",
          "name": "",
          "type": "address[]"
        }
      ],
      "stateMutability": "view",
      "type": "function",
      "constant": true
    }
  ],
  "bytecode": "0x608060405234801561001057600080fd5b50610b5f806100206000396000f3fe608060405234801561001057600080fd5b50600436106100625760003560e01c806306a49fce1461006757806372951a2a146100855780638ab66a90146100b55780639d7d9662146100e6578063a13894ea146100f0578063da3550ee14610120575b600080fd5b61006f61013c565b60405161007c9190610839565b60405180910390f35b61009f600480360381019061009a91906106ad565b6101ca565b6040516100ac91906107f5565b60405180910390f35b6100cf60048036038101906100ca9190610680565b610209565b6040516100dd9291906108d6565b60405180910390f35b6100ee61023a565b005b61010a60048036038101906101059190610680565b6103c0565b60405161011791906108bb565b60405180910390f35b61013a60048036038101906101359190610680565b61040c565b005b606060008054806020026020016040519081016040528092919081815260200182805480156101c057602002820191906000526020600020905b8160009054906101000a900473ffffffffffffffffffffffffffffffffffffffff1673ffffffffffffffffffffffffffffffffffffffff1681526020019060010190808311610176575b5050505050905090565b600081815481106101da57600080fd5b906000526020600020016000915054906101000a900473ffffffffffffffffffffffffffffffffffffffff1681565b60016020528060005260406000206000915090508060000154908060010160009054906101000a900460ff16905082565b600160003373ffffffffffffffffffffffffffffffffffffffff1673ffffffffffffffffffffffffffffffffffffffff16815260200190815260200160002060010160009054906101000a900460ff16156102ca576040517f08c379a00000000000000000000000000000000000000000000000000000000081526004016102c19061089b565b60405180910390fd5b60018060003373ffffffffffffffffffffffffffffffffffffffff1673ffffffffffffffffffffffffffffffffffffffff16815260200190815260200160002060010160006101000a81548160ff0219169083151502179055506000339080600181540180825580915050600190039060005260206000200160009091909190916101000a81548173ffffffffffffffffffffffffffffffffffffffff021916908373ffffffffffffffffffffffffffffffffffffffff1602179055507fc759ddb99771cebefdd86b8f8ec02a39c27679a36bb68fa89c42e2a00c3a10df336040516103b691906107f5565b60405180910390a1565b6000600160008373ffffffffffffffffffffffffffffffffffffffff1673ffffffffffffffffffffffffffffffffffffffff168152602001908152602001600020600001549050919050565b600260003373ffffffffffffffffffffffffffffffffffffffff1673ffffffffffffffffffffffffffffffffffffffff16815260200190815260200160002060009054906101000a900460ff1615610499576040517f08c379a00000000000000000000000000000000000000000000000000000000081526004016104909061087b565b60405180910390fd5b600160008273ffffffffffffffffffffffffffffffffffffffff1673ffffffffffffffffffffffffffffffffffffffff16815260200190815260200160002060010160009054906101000a900460ff16610528576040517f08c379a000000000000000000000000000000000000000000000000000000000815260040161051f9061085b565b60405180910390fd5b6001600260003373ffffffffffffffffffffffffffffffffffffffff1673ffffffffffffffffffffffffffffffffffffffff16815260200190815260200160002060006101000a81548160ff021916908315150217905550600160008273ffffffffffffffffffffffffffffffffffffffff1673ffffffffffffffffffffffffffffffffffffffff16815260200190815260200160002060000160008154809291906105d390610991565b91905055507f1a6a8a65ed2c2326ce1bbc6781faf147de39c5f1853c8ae35e2ef13d60b76b6281600160008473ffffffffffffffffffffffffffffffffffffffff1673ffffffffffffffffffffffffffffffffffffffff1681526020019081526020016000206000015460405161064b929190610810565b60405180910390a150565b60008135905061066581610afb565b92915050565b60008135905061067a81610b12565b92915050565b60006020828403121561069657610695610a09565b5b60006106a484828501610656565b91505092915050565b6000602082840312156106c3576106c2610a09565b5b60006106d18482850161066b565b91505092915050565b60006106e683836106f2565b60208301905092915050565b6106fb81610949565b82525050565b61070a81610949565b82525050565b600061071b8261090f565b6107258185610927565b9350610730836108ff565b8060005b8381101561076157815161074888826106da565b97506107538361091a565b925050600181019050610734565b5085935050505092915050565b6107778161095b565b82525050565b600061078a602683610938565b915061079582610a0e565b604082019050919050565b60006107ad602883610938565b91506107b882610a5d565b604082019050919050565b60006107d0602483610938565b91506107db82610aac565b604082019050919050565b6107ef81610987565b82525050565b600060208201905061080a6000830184610701565b92915050565b60006040820190506108256000830185610701565b61083260208301846107e6565b9392505050565b600060208201905081810360008301526108538184610710565b905092915050565b600060208201905081810360008301526108748161077d565b9050919050565b60006020820190508181036000830152610894816107a0565b9050919050565b600060208201905081810360008301526108b4816107c3565b9050919050565b60006020820190506108d060008301846107e6565b92915050565b60006040820190506108eb60008301856107e6565b6108f8602083018461076e565b9392505050565b6000819050602082019050919050565b600081519050919050565b6000602082019050919050565b600082825260208201905092915050565b600082825260208201905092915050565b600061095482610967565b9050919050565b60008115159050919050565b600073ffffffffffffffffffffffffffffffffffffffff82169050919050565b6000819050919050565b600061099c82610987565b91507fffffffffffffffffffffffffffffffffffffffffffffffffffffffffffffffff8214156109cf576109ce6109da565b5b600182019050919050565b7f4e487b7100000000000000000000000000000000000000000000000000000000600052601160045260246000fd5b600080fd5b7f5468697320706572736f6e206973206e6f742073657420757020666f7220656c60008201527f656374696f6e0000000000000000000000000000000000000000000000000000602082015250565b7f596f75206861766520616c726561647920766f74656420696e2074686973206560008201527f6c656374696f6e2e000000000000000000000000000000000000000000000000602082015250565b7f596f752061726520616c72656164792073657420757020666f7220656c65637460008201527f696f6e2e00000000000000000000000000000000000000000000000000000000602082015250565b610b0481610949565b8114610b0f57600080fd5b50565b610b1b81610987565b8114610b2657600080fd5b5056fea2646970667358221220c9b3ab7dcb08b0ecc90edd22b5a7238a8af00b81993fd20d4739707cb4118d2364736f6c63430008070033",
  "immutableReferences": {},
  "source": "pragma solidity ^0.8.7;\n\ncontract Election {\n    struct CandidateInfo {\n        uint votes;\n        bool isPutUpForElection;\n    }\n    \n    address[] public candidatesArray;\n    \n    mapping(address => CandidateInfo) public candidates;\n    mapping(address => bool) hasVoted;\n\n    event newCandidateAdded(address addr);\n    event newVote(address addr, uint votes);\n    \n    function enterSelection() public {\n        require(!candidates[msg.sender].isPutUpForElection, \"You are already set up for election.\");\n        candidates[msg.sender].isPutUpForElection = true;\n        candidatesArray.push(msg.sender);\n        emit newCandidateAdded(msg.sender);\n    }\n    \n    function voteFor(address _addr) public {\n        require(!hasVoted[msg.sender], \"You have already voted in this election.\");\n        require(candidates[_addr].isPutUpForElection, \"This person is not set up for election\");\n        hasVoted[msg.sender] = true;\n        candidates[_addr].votes++;\n        emit newVote(_addr, candidates[_addr].votes);\n    }\n    \n    function getVotesFor(address _addr) public view returns(uint) {\n        return candidates[_addr].votes;\n    }\n    \n    function getCandidates() public view returns(address[] memory) {\n        return candidatesArray;\n    }\n}",
  "sourcePath": "/Users/stefanweber/solidity-lottery/contracts/Election.sol",
  "compiler": {
    "name": "solc",
    "version": "0.8.7+commit.e28d00a7.Emscripten.clang"
  },
  "schemaVersion": "3.4.3",
  "updatedAt": "2021-11-11T21:21:08.111Z",
  "networkType": "ethereum",
  "devdoc": {
    "kind": "dev",
    "methods": {},
    "version": 1
  },
  "userdoc": {
    "kind": "user",
    "methods": {},
    "version": 1
  }
}